:100000000C9434000C9451000C9451000C94510049
:100010000C9451000C9451000C9451000C940B0161
:100020000C9451000C9451000C9451000C9451000C
:100030000C9451000C9451000C9451000C945100FC
:100040000C9451000C9451000C9453000C945100EA
:100050000C942C010C9451000C9451000C94510000
:100060000C9451000C94510011241FBECFEFD8E026
:10007000DEBFCDBF11E0A0E0B1E0EAE8F2E002C0EF
:1000800005900D92A030B107D9F721E0A0E0B1E0D2
:1000900001C01D92A730B207E1F70E94DA000C946C
:1000A00043010C9400001F920F920FB60F9211247F
:1000B0002F933F934F935F938F939F93EF93FF9370
:1000C0008091000190910101AC014F5F5F4F50930F
:1000D0000101409300012091C600880F991FFC0187
:1000E000ED5FFE4F822F90E0918380834230510577
:1000F000F4F010920101109200018091050120910D
:100100000301309104012130310521F02230310505
:1001100021F00DC0809587BD0AC080FF02C05F98A6
:1001200001C05F9A81FF02C0409801C0409AFF91D0
:10013000EF919F918F915F914F913F912F910F90F0
:100140000FBE0F901F9018958FEF85B988B98BB9A6
:100150005098519A579A569A5E985598389A53984B
:10016000549839983A9894B5936C94BD95B592602B
:1001700095BD87BDE0EBF0E0808188608083E1EB96
:10018000F0E08081876080830E9436017894089532
:10019000399A4198982F990F890F809302018FEF18
:1001A0008093B3008093B400E0E7F0E08081826048
:1001B000808308950E94A4008FE39CE90197F1F7E2
:1001C00000C0000081E090E00E94C80020E030E024
:1001D00040E050E089B185FB882780F9C82FD0E046
:1001E0004B9B03C08260C82FD0E0C417D50731F401
:1001F0002F5F3F4F293B9BE039072CF08C2F0E944B
:10020000250120E030E08FE39CE90197F1F700C081
:100210000000AE01DFCF1F920F920FB60F92112494
:100220008F9380910201882351F0809102018150C7
:100230008093020180910201811101C0419A8F9146
:100240000F900FBE0F901F9018959091C00095FFD2
:10025000FCCF8093C60008951F920F920FB60F92A5
:1002600011240F900FBE0F901F90189588ED80936A
:10027000C10086E08093C2001092C50087E680939B
:0A028000C40078940895F894FFCFAD
:00000001FF
