:100000000C9440000C945D000C945D000C945D0019
:100010000C945D000C945D000C945D000C945D00EC
:100020000C945D000C945D000C945D000C945D00DC
:100030000C945D000C945D000C945D000C945D00CC
:100040000C945D000C945D000C94CC050C945D0048
:100050000C94A8050C945D000C945D000C945D005C
:100060000C945D000C945D00C1019802DD01E60175
:1000700098020B029802980298024F025A026A02F2
:1000800011241FBECFEFD8E0DEBFCDBF11E0A0E04E
:10009000B1E0E4EDF0E102C005900D92A430B107AB
:1000A000D9F723E0A4E0B1E001C01D92AB35B2075F
:1000B000E1F70E94E0040C9468080C940000809121
:1000C000000125E0829FC001112490935C01809380
:1000D0005B0108955A9883E2809358010895CF9365
:1000E000DF9380E290E090935A018093590180E081
:1000F00090E00E9437089FEF980F9E3F10F4809386
:100100000001C1E0D0E0CE010E9437088F3F21F00E
:10011000FE01E55FFE4F80832196C131D10599F73D
:10012000DF91CF9108950895EF92FF920F931F935F
:10013000CF93DF9300D000D0CDB7DEB720E1829F10
:10014000C00111246F70862B8983809100018A83FE
:100150005B834C838E010F5F1F4FF12C84E0E82EF0
:10016000E00EF80181918F01F8260E949A05E012B5
:10017000F8CF8F2D0E949A050F900F900F900F903F
:10018000DF91CF911F910F91FF90EF900C946A0037
:10019000CF93DF93A82FECE1F1E020E030E080E0A6
:1001A000B0E0ED01022E02C0D595C7950A94E2F7A2
:1001B000C0FF05C0728361834083118681E02F5F99
:1001C0003F4F3A962630310561F7DF91CF91089580
:1001D000482F50E087E00C94940060E00C94E80015
:1001E000AF92BF92CF92DF92EF92FF920F931F9345
:1001F000CF93DF93CDB7DEB728970FB6F894DEBF65
:100200000FBECDBF80915801882331F0815080937B
:100210005801811101C05A9A80915B0190915C0153
:10022000009779F0019790935C0180935B01892B93
:1002300041F44091590150915A0168E080E00E94D8
:1002400094000E943C05882309F485C10E943C0566
:10025000863008F480C18E010F5F1F4F6801F02EB9
:1002600076E0E72EE00E0E945405F60181936F01BF
:10027000EE12F9CF80E095E09F0DF80121918F01FA
:1002800082279E13FACF99816A81FB803C810D8180
:100290004E81841360C1492F42954F709F7010E0CA
:1002A000132B443029F5CF2CD12CD62AE12CF12C5C
:1002B000AA24A394B12C95010E2C02C0220F331F47
:1002C0000A94E2F72C213D21232B51F0492FB8014C
:1002D000F701E45FFE4F808198870E94C8009885EF
:1002E000FFEFEF1AFF0A80E1E816F10421F733C1AE
:1002F00041111AC0611131C09F3079F50E3EEEEE0A
:100300001E0759F528960FB6F894DEBF0FBECDBF75
:10031000DF91CF911F910F91FF90EF90DF90CF90E1
:10032000BF90AF900C945F004130B9F46623A9F000
:10033000913099F4FBEAFF1210C00D3982EA1807D8
:1003400061F46093000180E090E00E9445084091D4
:10035000000150E060E081E01EC080910001681360
:10036000FAC04F8398870E946A004F8150E09885B9
:100370004C30510508F0DCC0FA01EC5CFF4F0C94E6
:10038000FF050C3C1C4C09F0D3C040915901509121
:100390005A0168E080E028960FB6F894DEBF0FBEE1
:1003A000CDBFDF91CF911F910F91FF90EF90DF9024
:1003B000CF90BF90AF900C949400492FB8018F2D2F
:1003C0000E94C8008111C7C083E0B3C05CE1C52EA4
:1003D00051E0D52E00E010E090E0EF2CF12C9701D9
:1003E000002E02C0359527950A94E2F720FF08C039
:1003F000F60143815481602F83E00E94940091E0D4
:100400000F5F1F4FFAE0CF0ED11C0630110539F7F0
:100410009111A1C0D9CF9130F1F40031110510F044
:1004200084E087C0F801E45FFE4FF0826F2DC801C1
:10043000019628960FB6F894DEBF0FBECDBFDF91B0
:10044000CF911F910F91FF90EF90DF90CF90BF90D1
:10045000AF900C944508923009F06AC0E12CF12C61
:10046000CC24C394D12CC6010E2C02C0880F991F36
:100470000A94E2F780239123892B49F0F701E45F86
:10048000FE4F408150E06E2D85E00E9494008FEF7A
:10049000E81AF80AE0E1EE16F10429F75CC09B3097
:1004A00009F046C0FEEDFF1243C00B3C1D4E09F0A3
:1004B0003FC0FFCF913029F410935A0100935901A6
:1004C0004AC09230A9F54091590150915A0160E01B
:1004D0008AE061CF9130D9F4EFE0EF1548F18F2D2C
:1004E00090E00A96B801880F991F28960FB6F894E5
:1004F000DEBF0FBECDBFDF91CF911F910F91FF9057
:10050000EF90DF90CF90BF90AF900C945308923053
:1005100079F4FFE0FF1560F02F2D30E0C9010A9655
:10052000880F991F0E943F08AC016F2D8BE033CFDD
:1005300081E028960FB6F894DEBF0FBECDBFDF91E5
:10054000CF911F910F91FF90EF90DF90CF90BF90D0
:10055000AF900C94ED0028960FB6F894DEBF0FBE56
:10056000CDBFDF91CF911F910F91FF90EF90DF9062
:10057000CF90BF90AF900895AF92BF92CF92DF928D
:10058000EF92FF920F931F93CF93DF93EC018B8138
:100590009C8129813A818217930709F493C01985B8
:1005A000112329F0115019870E946A008BC06881BD
:1005B00061110CC03C832B83B90180E090E00E9464
:1005C00013076D837E838F8398877DC06F3019F406
:1005D0009A83898378C070E080E090E00E941307DE
:1005E0009B01AC010E94A6076B017C010E946A007E
:1005F00020E030E0A901C701B6010E94A107AB804D
:10060000BC8018166CF4B5016F5F7F4F80E090E0FE
:100610000E941307A70196010E9472066B017C01DC
:100620002DEC3CEC4CEC5DE3C701B6010E940606E4
:1006300009811A81A016B10690F42D813E814F8167
:1006400058850E9406066D837E838F8398870E945B
:10065000E4060617170748F17C836B8331C00A153F
:100660001B0570F59B01AC016D817E818F819885A2
:100670000E9405066B017C0120E030E0A9010E9488
:10068000A10718162CF4CD82DE82EF82F88604C012
:100690001D821E821F8218866D817E818F819885C2
:1006A0000E94E40660177107B8F61C830B83B8013B
:1006B00080E090E00E9413076D837E838F8398878C
:1006C00011E001C010E0812FDF91CF911F910F91B8
:1006D000FF90EF90DF90CF90BF90AF9008959091F2
:1006E0000401992321F09150909304010895682FFB
:1006F00086E00E94E80086E9809304010C946A0079
:100700001B9902C081E017C01C9902C082E013C08F
:100710004F9902C083E00FC04E9902C084E00BC025
:1007200025982D9A1D9902C08AE005C02098289A24
:10073000189903C08BE00C946F0381112DC0259A8A
:100740002D982098289A1B9909C0809107019091B3
:100750000801816090930801809307011C9909C0EA
:100760008091070190910801826090930801809325
:1007700007014F9909C08091070190910801846099
:1007800090930801809307014E9936C0809107012C
:100790009091080188602CC0209A289825982D9A5D
:1007A0001B9909C080910701909108018061909385
:1007B0000801809307011C9909C08091070190915D
:1007C0000801806290930801809307014F9909C046
:1007D00080910701909108018064909308018093B3
:1007E00007014E9909C08091070190910801806826
:1007F000909308018093070125982D9A2098289AB4
:1008000008952598209823982498579856982D9ABB
:10081000289A2B9A2C9A5F9A5E9A0895AF92BF926B
:10082000CF92DF92EF92FF920F931F93CF93DF93BC
:100830002FEF3FE000913301109134017901E01A6C
:10084000F10AC0913D01D0913E016901CC1ADD0A47
:10085000A0912901B0912A015901AA1ABB0AE0917D
:100860005101F0915201609147017091480140910E
:100870001F015091200180E090E028E3E816F9067E
:1008800009F42160C816D90609F42260A816B90631
:1008900009F42460E817F90709F4277F6817790736
:1008A00009F42F7E4817590709F42F7D28B90196BE
:1008B0008F3F3FE0930711F781E00D3F1F4008F4A1
:1008C00080E0CD3FDF4008F08260AD3FBF4008F0E0
:1008D0008460ED3FFF4008F088606D3F7F4008F086
:1008E00080614D3F5F4008F0806288B9DF91CF9111
:1008F0001F910F91FF90EF90DF90CF90BF90AF903E
:100900000895C0E0D0E00AE0A895C63009F4C0E040
:1009100011E01C0F0C9FC0011124845E9E4F0E94A9
:10092000BC02811106C083EC99E00197F1F700C089
:100930000000CE5F019FC0011124845E9E4F0E9483
:10094000BC02811106C083EC99E00197F1F700C069
:1009500000000E940E0411E01D0FD23019F0D530B6
:1009600029F024C080E00E94800320C08FEF0E9405
:10097000800340910701509108014115510531F460
:100980008091050190910601892B81F060E086E05D
:100990000E949400809107019091080190930601B4
:1009A0008093050110920801109207010E946B05C7
:1009B0000E94F000163011F0D12FA6CF10E0FCCF2E
:1009C00018B88FEF87B95B9A53985A98529A0E9439
:1009D00001048091640081608093640080916400D0
:1009E00084608093640080916400806280936400DE
:1009F00080916400886080936400809164008064CA
:100A000080936400809164008068809364002FEB81
:100A100084ED91E0215080409040E1F700C000005B
:100A200098E088E10FB6F894A895809360000FBE17
:100A3000909360000E94F2050E946F000E945F0088
:100A4000ECE1F1E080E0A3E020E530E040E050E0C0
:100A500060EA72E4A0831282118234832383458387
:100A60005683678370879CE3980F91873A96815FDE
:100A70008A3581F70E9481048091010190910201E1
:100A8000009779F0019790930201809301012091E2
:100A90000A01222331F0892B21F40E949300109245
:100AA0000A0180910A01089580910A01882391F03A
:100AB00090915C02ADE5B2E04CE552E0FA012E2FD8
:100AC000241B281718F42D912193F9CF815080937E
:100AD0000A01892F089580910B01882351F180919B
:100AE0000901811102C04B9B24C081E08093090160
:100AF000539A5B988091C00085FF1BC080915D0177
:100B00008093C60080910B01AEE5B1E02DE531E0A8
:100B1000F9019E2F921B981718F49D919193F9CF8C
:100B2000815080930B01811104C05B9A53981092FD
:100B300009010895E0910B01EF3F41F091E09E0F14
:100B400090930B01F0E0E35AFE4F80830C946B0509
:100B50001F920F920FB60F9211242F933F934F9332
:100B60005F936F937F938F939F93AF93BF93EF9315
:100B7000FF930E946B05FF91EF91BF91AF919F9101
:100B80008F917F916F915F914F913F912F910F9036
:100B90000FBE0F901F9018951F920F920FB60F92D5
:100BA00011248F939F93EF93FF93E0910A01E83C08
:100BB00050F481E08E0F80930A018091C600F0E02E
:100BC000E45AFD4F808384E190E09093020180938A
:100BD0000101FF91EF919F918F910F900FBE0F90A8
:100BE0001F90189588ED8093C10086E08093C20025
:100BF0001092C50081E88093C40078940895EE0FA8
:100C0000FF1F0590F491E02D09945058BB27AA27A7
:100C10000E941D060C9467070E94590738F00E9435
:100C2000600720F039F49F3F19F426F40C9456071E
:100C30000EF4E095E7FB0C945007E92F0E9478072B
:100C400058F3BA17620773078407950720F079F401
:100C5000A6F50C949A070EF4E0950B2EBA2FA02D52
:100C60000B01B90190010C01CA01A0011124FF2759
:100C7000591B99F0593F50F4503E68F11A16F04054
:100C8000A22F232F342F4427585FF3CF4695379553
:100C90002795A795F0405395C9F77EF41F16BA0B18
:100CA000620B730B840BBAF09150A1F0FF0FBB1FC6
:100CB000661F771F881FC2F70EC0BA0F621F731F0F
:100CC000841F48F4879577956795B795F7959E3F6C
:100CD00008F0B0CF9395880F08F09927EE0F9795FD
:100CE000879508950E9486060C9467070E94600706
:100CF00058F00E94590740F029F45F3F29F00C9406
:100D0000500751110C949B070C9456070E947807CA
:100D100068F39923B1F3552391F3951B550BBB272A
:100D2000AA2762177307840738F09F5F5F4F220F6F
:100D3000331F441FAA1FA9F335D00E2E3AF0E0E866
:100D400032D091505040E695001CCAF72BD0FE2FB0
:100D500029D0660F771F881FBB1F26173707480744
:100D6000AB07B0E809F0BB0B802DBF01FF279358FC
:100D70005F4F3AF09E3F510578F00C9450070C9469
:100D80009B075F3FE4F3983ED4F38695779567958C
:100D9000B795F7959F5FC9F7880F911D9695879531
:100DA00097F90895E1E0660F771F881FBB1F621750
:100DB00073078407BA0720F0621B730B840BBA0B0E
:100DC000EE1F88F7E09508950E94800788F09F57EE
:100DD00098F0B92F9927B751B0F0E1F0660F771F5F
:100DE000881F991F1AF0BA95C9F714C0B13091F055
:100DF0000E949A07B1E008950C949A07672F782F04
:100E00008827B85F39F0B93FCCF386957795679519
:100E1000B395D9F73EF490958095709561957F4F85
:100E20008F4F9F4F0895E89409C097FB3EF490952B
:100E30008095709561957F4F8F4F9F4F9923A9F0B3
:100E4000F92F96E9BB279395F69587957795679542
:100E5000B795F111F8CFFAF4BB0F11F460FF1BC086
:100E60006F5F7F4F8F4F9F4F16C0882311F096E919
:100E700011C0772321F09EE8872F762F05C06623C7
:100E800071F096E8862F70E060E02AF09A95660F80
:100E9000771F881FDAF7880F9695879597F9089539
:100EA00097F99F6780E870E060E008959FEF80EC1D
:100EB000089500240A9416161706180609060895C0
:100EC00000240A9412161306140605060895092E26
:100ED0000394000C11F4882352F0BB0F40F4BF2B95
:100EE00011F460FF04C06F5F7F4F8F4F9F4F0895D5
:100EF00057FD9058440F551F59F05F3F71F04795CB
:100F0000880F97FB991F61F09F3F79F087950895AF
:100F1000121613061406551FF2CF4695F1DF08C0CE
:100F2000161617061806991FF1CF869571056105EB
:100F300008940895E894BB2766277727CB0197F993
:100F400008950E94130808F48FEF08950E94B907CE
:100F50000C9467070E94590738F00E94600720F040
:100F6000952311F00C9450070C94560711240C94FF
:100F70009B070E94780770F3959FC1F3950F50E08F
:100F8000551F629FF001729FBB27F00DB11D639F3B
:100F9000AA27F00DB11DAA1F649F6627B00DA11DE1
:100FA000661F829F2227B00DA11D621F739FB00D87
:100FB000A11D621F839FA00D611D221F749F3327F7
:100FC000A00D611D231F849F600D211D822F762F90
:100FD0006A2F11249F5750409AF0F1F088234AF06D
:100FE000EE0FFF1FBB1F661F771F881F91505040D9
:100FF000A9F79E3F510580F00C9450070C949B0775
:101000005F3FE4F3983ED4F3869577956795B7955F
:10101000F795E7959F5FC1F7FE2B880F911D969579
:10102000879597F90895990F0008550FAA0BE0E8E6
:10103000FEEF16161706E807F907C0F0121613069A
:10104000E407F50798F0621B730B840B950B39F4DA
:101050000A2661F0232B242B252B21F408950A2640
:1010600009F4A140A6958FEF811D811D0895F9997E
:10107000FECF92BD81BDF89A992780B50895A8E169
:10108000B0E042E050E00C945A08262FF999FECFC8
:101090001FBA92BD81BD20BD0FB6F894FA9AF99A95
:1010A0000FBE019608950E944508272F0C9446080C
:1010B000DC01CB01FC01F999FECF06C0F2BDE1BD18
:1010C000F89A319600B40D9241505040B8F7089507
:0410D000F894FFCFC2
:0410D40020140000E4
:00000001FF
